:020000000D29C8
:1000060083120313FD01F801700803190034740606
:10001600FA00FA1BFD09FB01F41F1328F409F40A80
:10002600F01F1728F009F00A70087404FA00FA1B8A
:100036003B287408F802F00D700DF80D7408F807E7
:10004600F00D0630FC00700DF80D74087018F802FB
:10005600701CF807F00DFC0B2628701CF8077B189F
:100066004928FD1F0034F009F00AF809F80A00349F
:10007600F41F4628F01B43287008F800F0013428C6
:10008600F001F00A0034F009FB0A1C28F80A74088B
:100096007802031D3428F801F00AF01F3428FF34D3
:0200A600080050
:1000A8000A3083120313F4002508F00003207008B7
:1000B800A6000A30F4002508F00003207808F000B4
:1000C80070088600260888000930FB001E30FC00F6
:1000D800E430FD00FD0B6E28FC0B6E28FB0B6E2830
:0400E800000008000C
:0E00EC008312031324088A00230882000800F0
:1000FA00831203130918C228071CA22805108510A9
:10010A0005118511113087000330A20080302206C4
:10011A00F0008030003A7002031C9B282208A500D8
:10012A00542089189928C228A2038B280C308700EA
:10013A000514851405158515C228871DC2280510C2
:10014A008510051185110A3087000330A20080301E
:10015A002206F0008030003A7002031CBC282208F4
:10016A00A50054208918BA28C228A203AC28213035
:0C017A0087000514851405158515080084
:1001860076208A110A128000840AA30A0319A40A97
:08019600F003031DC32808005B
:10019E008312031389180C2921308700051085104E
:1001AE000511851180302106F0008030003A700272
:1001BE00031CEF282108033A031DE728113087009E
:1001CE002108A5005420891CED280C29A103D9284B
:1001DE000C30870080302006F0008030003A70022C
:1001EE00031C07292008033A031DFF280A30870045
:1001FE002008A5005420891C05290C29A003F128EC
:0C020E000F30A1001730A000CF2808001E
:10021A00173083120313A0000F30A1000730831692
:10022A009F008501FF3083128500831686018312A1
:10023A008601831687018312870183168801831238
:10024A008801033083168900831289182E29CF204A
:08025A002F297D2029293029FC
:02400E004A2F37
:00000001FF
